{
  "address": "0x20c79Cf9CE64b0fd81AFc99A82F0b643a4bDb6b3",
  "abi": [
    {
      "inputs": [
        {
          "internalType": "address",
          "name": "_ausd",
          "type": "address"
        }
      ],
      "stateMutability": "nonpayable",
      "type": "constructor"
    },
    {
      "inputs": [],
      "name": "COOLDOWN",
      "outputs": [
        {
          "internalType": "uint256",
          "name": "",
          "type": "uint256"
        }
      ],
      "stateMutability": "view",
      "type": "function"
    },
    {
      "inputs": [],
      "name": "FAUCET_AMOUNT",
      "outputs": [
        {
          "internalType": "uint64",
          "name": "",
          "type": "uint64"
        }
      ],
      "stateMutability": "view",
      "type": "function"
    },
    {
      "inputs": [],
      "name": "ausd",
      "outputs": [
        {
          "internalType": "contract IShieldedStablecoin",
          "name": "",
          "type": "address"
        }
      ],
      "stateMutability": "view",
      "type": "function"
    },
    {
      "inputs": [],
      "name": "claim",
      "outputs": [],
      "stateMutability": "nonpayable",
      "type": "function"
    },
    {
      "inputs": [],
      "name": "disableFaucet",
      "outputs": [],
      "stateMutability": "nonpayable",
      "type": "function"
    },
    {
      "inputs": [],
      "name": "faucetEnabled",
      "outputs": [
        {
          "internalType": "bool",
          "name": "",
          "type": "bool"
        }
      ],
      "stateMutability": "view",
      "type": "function"
    },
    {
      "inputs": [
        {
          "internalType": "address",
          "name": "",
          "type": "address"
        }
      ],
      "name": "lastClaim",
      "outputs": [
        {
          "internalType": "uint256",
          "name": "",
          "type": "uint256"
        }
      ],
      "stateMutability": "view",
      "type": "function"
    },
    {
      "inputs": [],
      "name": "owner",
      "outputs": [
        {
          "internalType": "address",
          "name": "",
          "type": "address"
        }
      ],
      "stateMutability": "view",
      "type": "function"
    }
  ],
  "transactionHash": "0x36bab99239a849450ee4b65269dafdc17c17d735337b02c99866ef15fed4b823",
  "args": [
    "0x75980803748f325b7274c9b68e87cbc2f9e8b357"
  ],
  "numDeployments": 1,
  "solcInputHash": "1a2f0e1c2d39e9fd5675a0ccc82676d2",
  "bytecode": "0x608034608a57601f6103f238819003918201601f19168301916001600160401b03831184841017608e57808492602094604052833981010312608a57516001600160a01b03811690819003608a5760028054600180546001600160a01b0319169093179092556001600160a81b03199091163317600160a01b17905560405161034f90816100a38239f35b5f80fd5b634e487b7160e01b5f52604160045260245ffdfe6080604081815260049182361015610015575f80fd5b5f925f3560e01c9182634e71d92d146101d2575081635c16e15e146101995781635d1c3f041461017257816376697640146101535781638da5cb5b1461012a578163944d3c2a146100c257508063a2724a4d146100a55763c23af8321461007a575f80fd5b346100a157816003193601126100a15760015490516001600160a01b039091168152602090f35b5080fd5b50346100a157816003193601126100a15760209051620151808152f35b905034610126578260031936011261012657600254916001600160a01b03831633036100f757505060ff60a01b191660025580f35b906020606492519162461bcd60e51b835282015260096024820152682737ba1037bbb732b960b91b6044820152fd5b8280fd5b5050346100a157816003193601126100a15760025490516001600160a01b039091168152602090f35b5050346100a157816003193601126100a157602090516305f5e1008152f35b5050346100a157816003193601126100a15760209060ff60025460a01c1690519015158152f35b90503461012657602036600319011261012657356001600160a01b03811690819003610126578282916020945280845220549051908152f35b909291503461029a575f36600319011261029a5760ff60025460a01c16156102e65750335f525f602052805f20546201518081018091116102d357421061029e57335f525f60205242815f205560018060a01b036001541691823b1561029a575f80936044845180968193634621b13560e11b835233878401526305f5e10060248401525af1801561029057610266578380f35b9091925067ffffffffffffffff831161027d575052005b604190634e487b7160e01b5f525260245ffd5b82513d5f823e3d90fd5b5f80fd5b906020606492519162461bcd60e51b8352820152600f60248201526e436f6f6c646f776e2061637469766560881b6044820152fd5b601183634e487b7160e01b5f525260245ffd5b62461bcd60e51b8152602083820152600f60248201526e11985d58d95d08191a5cd8589b1959608a1b6044820152606490fdfea26469706673582212205861f06d551a0a9e069aa04863b89b875a70e8062e40db1d90eec4703e782da264736f6c63430008190033",
  "devdoc": {
    "kind": "dev",
    "methods": {},
    "version": 1
  },
  "userdoc": {
    "kind": "user",
    "methods": {},
    "version": 1
  },
  "storageLayout": {
    "storage": [
      {
        "astId": 22313,
        "contract": "contracts/AUSDFaucet.sol:AUSDFaucet",
        "label": "lastClaim",
        "offset": 0,
        "slot": "0",
        "type": "t_mapping(t_address,t_uint256)"
      },
      {
        "astId": 22316,
        "contract": "contracts/AUSDFaucet.sol:AUSDFaucet",
        "label": "ausd",
        "offset": 0,
        "slot": "1",
        "type": "t_contract(IShieldedStablecoin)22303"
      },
      {
        "astId": 22318,
        "contract": "contracts/AUSDFaucet.sol:AUSDFaucet",
        "label": "owner",
        "offset": 0,
        "slot": "2",
        "type": "t_address"
      },
      {
        "astId": 22321,
        "contract": "contracts/AUSDFaucet.sol:AUSDFaucet",
        "label": "faucetEnabled",
        "offset": 20,
        "slot": "2",
        "type": "t_bool"
      }
    ],
    "types": {
      "t_address": {
        "encoding": "inplace",
        "label": "address",
        "numberOfBytes": "20"
      },
      "t_bool": {
        "encoding": "inplace",
        "label": "bool",
        "numberOfBytes": "1"
      },
      "t_contract(IShieldedStablecoin)22303": {
        "encoding": "inplace",
        "label": "contract IShieldedStablecoin",
        "numberOfBytes": "20"
      },
      "t_mapping(t_address,t_uint256)": {
        "encoding": "mapping",
        "key": "t_address",
        "label": "mapping(address => uint256)",
        "numberOfBytes": "32",
        "value": "t_uint256"
      },
      "t_uint256": {
        "encoding": "inplace",
        "label": "uint256",
        "numberOfBytes": "32"
      }
    }
  }
}