{
  "address": "0xF7F52E384eBf3ea9B728Ce1645fb3f37e49F8286",
  "abi": [
    {
      "inputs": [
        {
          "internalType": "address",
          "name": "_fusd",
          "type": "address"
        }
      ],
      "stateMutability": "nonpayable",
      "type": "constructor"
    },
    {
      "inputs": [
        {
          "internalType": "uint8",
          "name": "got",
          "type": "uint8"
        },
        {
          "internalType": "uint8",
          "name": "expected",
          "type": "uint8"
        }
      ],
      "name": "InvalidEncryptedInput",
      "type": "error"
    },
    {
      "inputs": [],
      "name": "ReentrancyGuardReentrantCall",
      "type": "error"
    },
    {
      "inputs": [
        {
          "internalType": "int32",
          "name": "value",
          "type": "int32"
        }
      ],
      "name": "SecurityZoneOutOfBounds",
      "type": "error"
    },
    {
      "anonymous": false,
      "inputs": [
        {
          "indexed": true,
          "internalType": "uint256",
          "name": "marketId",
          "type": "uint256"
        },
        {
          "indexed": false,
          "internalType": "uint256",
          "name": "betIndex",
          "type": "uint256"
        },
        {
          "indexed": true,
          "internalType": "address",
          "name": "bettor",
          "type": "address"
        }
      ],
      "name": "BetDecryptRequested",
      "type": "event"
    },
    {
      "anonymous": false,
      "inputs": [
        {
          "indexed": true,
          "internalType": "uint256",
          "name": "marketId",
          "type": "uint256"
        },
        {
          "indexed": true,
          "internalType": "address",
          "name": "bettor",
          "type": "address"
        },
        {
          "indexed": false,
          "internalType": "uint256",
          "name": "betIndex",
          "type": "uint256"
        }
      ],
      "name": "BetPlaced",
      "type": "event"
    },
    {
      "anonymous": false,
      "inputs": [
        {
          "indexed": true,
          "internalType": "address",
          "name": "user",
          "type": "address"
        },
        {
          "indexed": false,
          "internalType": "uint64",
          "name": "amount",
          "type": "uint64"
        }
      ],
      "name": "FUSDDeposited",
      "type": "event"
    },
    {
      "anonymous": false,
      "inputs": [
        {
          "indexed": true,
          "internalType": "address",
          "name": "user",
          "type": "address"
        },
        {
          "indexed": false,
          "internalType": "uint64",
          "name": "amount",
          "type": "uint64"
        }
      ],
      "name": "FUSDWithdrawn",
      "type": "event"
    },
    {
      "anonymous": false,
      "inputs": [
        {
          "indexed": true,
          "internalType": "uint256",
          "name": "id",
          "type": "uint256"
        },
        {
          "indexed": false,
          "internalType": "string",
          "name": "question",
          "type": "string"
        },
        {
          "indexed": true,
          "internalType": "address",
          "name": "creator",
          "type": "address"
        }
      ],
      "name": "MarketCreated",
      "type": "event"
    },
    {
      "inputs": [
        {
          "internalType": "uint256",
          "name": "",
          "type": "uint256"
        },
        {
          "internalType": "uint256",
          "name": "",
          "type": "uint256"
        }
      ],
      "name": "bets",
      "outputs": [
        {
          "internalType": "address",
          "name": "bettor",
          "type": "address"
        },
        {
          "internalType": "euint64",
          "name": "encryptedStake",
          "type": "uint256"
        },
        {
          "internalType": "ebool",
          "name": "encryptedOutcome",
          "type": "uint256"
        },
        {
          "internalType": "uint256",
          "name": "ethEscrow",
          "type": "uint256"
        },
        {
          "internalType": "euint64",
          "name": "fusdEscrow",
          "type": "uint256"
        },
        {
          "internalType": "bool",
          "name": "decryptRequested",
          "type": "bool"
        },
        {
          "internalType": "bool",
          "name": "withdrawn",
          "type": "bool"
        }
      ],
      "stateMutability": "view",
      "type": "function"
    },
    {
      "inputs": [
        {
          "internalType": "string",
          "name": "question",
          "type": "string"
        },
        {
          "internalType": "uint256",
          "name": "closeTime",
          "type": "uint256"
        },
        {
          "internalType": "uint16",
          "name": "feeBps",
          "type": "uint16"
        },
        {
          "internalType": "enum FHEPredictionMarket.Currency",
          "name": "currency",
          "type": "uint8"
        },
        {
          "internalType": "address",
          "name": "priceFeed",
          "type": "address"
        },
        {
          "internalType": "int256",
          "name": "priceThreshold",
          "type": "int256"
        }
      ],
      "name": "createPriceMarket",
      "outputs": [
        {
          "internalType": "uint256",
          "name": "id",
          "type": "uint256"
        }
      ],
      "stateMutability": "nonpayable",
      "type": "function"
    },
    {
      "inputs": [
        {
          "components": [
            {
              "internalType": "uint256",
              "name": "ctHash",
              "type": "uint256"
            },
            {
              "internalType": "uint8",
              "name": "securityZone",
              "type": "uint8"
            },
            {
              "internalType": "uint8",
              "name": "utype",
              "type": "uint8"
            },
            {
              "internalType": "bytes",
              "name": "signature",
              "type": "bytes"
            }
          ],
          "internalType": "struct InEuint64",
          "name": "encAmount",
          "type": "tuple"
        }
      ],
      "name": "depositFUSD",
      "outputs": [],
      "stateMutability": "nonpayable",
      "type": "function"
    },
    {
      "inputs": [
        {
          "internalType": "uint256",
          "name": "",
          "type": "uint256"
        }
      ],
      "name": "ethMarketEscrow",
      "outputs": [
        {
          "internalType": "uint256",
          "name": "",
          "type": "uint256"
        }
      ],
      "stateMutability": "view",
      "type": "function"
    },
    {
      "inputs": [],
      "name": "fusd",
      "outputs": [
        {
          "internalType": "contract IShieldedStablecoin",
          "name": "",
          "type": "address"
        }
      ],
      "stateMutability": "view",
      "type": "function"
    },
    {
      "inputs": [
        {
          "internalType": "uint256",
          "name": "marketId",
          "type": "uint256"
        }
      ],
      "name": "getBetCount",
      "outputs": [
        {
          "internalType": "uint256",
          "name": "",
          "type": "uint256"
        }
      ],
      "stateMutability": "view",
      "type": "function"
    },
    {
      "inputs": [],
      "name": "marketCounter",
      "outputs": [
        {
          "internalType": "uint256",
          "name": "",
          "type": "uint256"
        }
      ],
      "stateMutability": "view",
      "type": "function"
    },
    {
      "inputs": [
        {
          "internalType": "uint256",
          "name": "",
          "type": "uint256"
        }
      ],
      "name": "markets",
      "outputs": [
        {
          "internalType": "string",
          "name": "question",
          "type": "string"
        },
        {
          "internalType": "uint256",
          "name": "closeTime",
          "type": "uint256"
        },
        {
          "internalType": "uint16",
          "name": "feeBps",
          "type": "uint16"
        },
        {
          "internalType": "enum FHEPredictionMarket.Currency",
          "name": "currency",
          "type": "uint8"
        },
        {
          "internalType": "contract AggregatorV3Interface",
          "name": "priceFeed",
          "type": "address"
        },
        {
          "internalType": "int256",
          "name": "priceThreshold",
          "type": "int256"
        },
        {
          "internalType": "bool",
          "name": "outcomeReported",
          "type": "bool"
        },
        {
          "internalType": "bool",
          "name": "winningOutcome",
          "type": "bool"
        },
        {
          "internalType": "euint64",
          "name": "totalYes",
          "type": "uint256"
        },
        {
          "internalType": "euint64",
          "name": "totalNo",
          "type": "uint256"
        },
        {
          "internalType": "uint64",
          "name": "decryptedYes",
          "type": "uint64"
        },
        {
          "internalType": "uint64",
          "name": "decryptedNo",
          "type": "uint64"
        },
        {
          "internalType": "uint64",
          "name": "winningPool",
          "type": "uint64"
        },
        {
          "internalType": "uint64",
          "name": "losingPool",
          "type": "uint64"
        },
        {
          "internalType": "uint64",
          "name": "distributablePool",
          "type": "uint64"
        },
        {
          "internalType": "uint256",
          "name": "ethProtocolFee",
          "type": "uint256"
        },
        {
          "internalType": "euint64",
          "name": "fusdProtocolFee",
          "type": "uint256"
        },
        {
          "internalType": "bool",
          "name": "decryptRequested",
          "type": "bool"
        },
        {
          "internalType": "bool",
          "name": "settled",
          "type": "bool"
        }
      ],
      "stateMutability": "view",
      "type": "function"
    },
    {
      "inputs": [
        {
          "internalType": "address",
          "name": "",
          "type": "address"
        },
        {
          "internalType": "address",
          "name": "from",
          "type": "address"
        },
        {
          "internalType": "euint64",
          "name": "amount",
          "type": "uint256"
        },
        {
          "internalType": "bytes",
          "name": "",
          "type": "bytes"
        }
      ],
      "name": "onConfidentialTransferReceived",
      "outputs": [
        {
          "internalType": "ebool",
          "name": "",
          "type": "uint256"
        }
      ],
      "stateMutability": "nonpayable",
      "type": "function"
    },
    {
      "inputs": [],
      "name": "owner",
      "outputs": [
        {
          "internalType": "address",
          "name": "",
          "type": "address"
        }
      ],
      "stateMutability": "view",
      "type": "function"
    },
    {
      "inputs": [
        {
          "internalType": "uint256",
          "name": "marketId",
          "type": "uint256"
        },
        {
          "components": [
            {
              "internalType": "uint256",
              "name": "ctHash",
              "type": "uint256"
            },
            {
              "internalType": "uint8",
              "name": "securityZone",
              "type": "uint8"
            },
            {
              "internalType": "uint8",
              "name": "utype",
              "type": "uint8"
            },
            {
              "internalType": "bytes",
              "name": "signature",
              "type": "bytes"
            }
          ],
          "internalType": "struct InEuint64",
          "name": "encStake",
          "type": "tuple"
        },
        {
          "components": [
            {
              "internalType": "uint256",
              "name": "ctHash",
              "type": "uint256"
            },
            {
              "internalType": "uint8",
              "name": "securityZone",
              "type": "uint8"
            },
            {
              "internalType": "uint8",
              "name": "utype",
              "type": "uint8"
            },
            {
              "internalType": "bytes",
              "name": "signature",
              "type": "bytes"
            }
          ],
          "internalType": "struct InEbool",
          "name": "encOutcome",
          "type": "tuple"
        },
        {
          "internalType": "uint256",
          "name": "ethAmount",
          "type": "uint256"
        },
        {
          "components": [
            {
              "internalType": "uint256",
              "name": "ctHash",
              "type": "uint256"
            },
            {
              "internalType": "uint8",
              "name": "securityZone",
              "type": "uint8"
            },
            {
              "internalType": "uint8",
              "name": "utype",
              "type": "uint8"
            },
            {
              "internalType": "bytes",
              "name": "signature",
              "type": "bytes"
            }
          ],
          "internalType": "struct InEuint64",
          "name": "encFusdAmount",
          "type": "tuple"
        }
      ],
      "name": "placeBet",
      "outputs": [],
      "stateMutability": "payable",
      "type": "function"
    },
    {
      "inputs": [
        {
          "internalType": "uint256",
          "name": "marketId",
          "type": "uint256"
        },
        {
          "internalType": "uint256",
          "name": "betIndex",
          "type": "uint256"
        }
      ],
      "name": "requestBetDecrypt",
      "outputs": [],
      "stateMutability": "nonpayable",
      "type": "function"
    },
    {
      "inputs": [
        {
          "internalType": "uint256",
          "name": "marketId",
          "type": "uint256"
        }
      ],
      "name": "requestDecrypt",
      "outputs": [],
      "stateMutability": "nonpayable",
      "type": "function"
    },
    {
      "inputs": [
        {
          "internalType": "uint256",
          "name": "marketId",
          "type": "uint256"
        }
      ],
      "name": "resolveWithChainlink",
      "outputs": [],
      "stateMutability": "nonpayable",
      "type": "function"
    },
    {
      "inputs": [
        {
          "internalType": "uint256",
          "name": "marketId",
          "type": "uint256"
        }
      ],
      "name": "settleMarket",
      "outputs": [],
      "stateMutability": "nonpayable",
      "type": "function"
    },
    {
      "inputs": [
        {
          "internalType": "address",
          "name": "",
          "type": "address"
        }
      ],
      "name": "userFusdBalance",
      "outputs": [
        {
          "internalType": "euint64",
          "name": "",
          "type": "uint256"
        }
      ],
      "stateMutability": "view",
      "type": "function"
    },
    {
      "inputs": [
        {
          "internalType": "uint256",
          "name": "marketId",
          "type": "uint256"
        },
        {
          "internalType": "uint256",
          "name": "betIndex",
          "type": "uint256"
        }
      ],
      "name": "withdrawETH",
      "outputs": [],
      "stateMutability": "nonpayable",
      "type": "function"
    },
    {
      "inputs": [
        {
          "internalType": "uint256",
          "name": "marketId",
          "type": "uint256"
        }
      ],
      "name": "withdrawETHFees",
      "outputs": [],
      "stateMutability": "nonpayable",
      "type": "function"
    },
    {
      "inputs": [
        {
          "internalType": "uint256",
          "name": "marketId",
          "type": "uint256"
        },
        {
          "internalType": "uint256",
          "name": "betIndex",
          "type": "uint256"
        }
      ],
      "name": "withdrawFUSD",
      "outputs": [],
      "stateMutability": "nonpayable",
      "type": "function"
    },
    {
      "inputs": [
        {
          "internalType": "uint256",
          "name": "marketId",
          "type": "uint256"
        }
      ],
      "name": "withdrawFUSDFees",
      "outputs": [],
      "stateMutability": "nonpayable",
      "type": "function"
    }
  ],
  "transactionHash": "0x8e843eca952511601d0ad3f5076d52d6dce9e0043f89f8b08c7ebb6c2b50409c",
  "args": [
    "0x75980803748f325b7274c9b68e87cbc2f9e8b357"
  ],
  "numDeployments": 8,
  "solcInputHash": "15ecbab3312f1f40fc11712994198521",
  "bytecode": "0x608034607a57601f61289238819003918201601f19168301916001600160401b03831184841017607e57808492602094604052833981010312607a57516001600160a01b03811690819003607a5760015f5560018060a01b03193381600154161760015560025416176002556040516127ff90816100938239f35b5f80fd5b634e487b7160e01b5f52604160045260245ffdfe60406080815260049081361015610014575f80fd5b5f3560e01c8063192b4007146116ae57806324760807146116905780632a508bae1461155c57806348260230146114bf57806363503318146114a65780636a09f6be1461141e5780636b7128ec146113f75780636da1e4ab14611330578063763e5a6014610fcd5780638da5cb5b14610fa5578063944e3ddb14610db85780639566b6a714610d90578063a20f789c14610d69578063a7b1be7f14610877578063b1283e771461068f578063c600ebac14610520578063c7cdea37146104e4578063ccaec0b7146104ad578063db0b569e146102525763eb96b4bb146100f8575f80fd5b346101d65760203660031901126101d65781355f5281602052805f2060018101544210610221578281019260ff8454166101eb5760028201548351633fabe5a360e21b81529160a091839190829060181c6001600160a01b03165afa9283156101e257505f9261018a575b5060030154825461ff00191691121560081b61ff00161781555b805460ff19166001179055005b915060a0823d60a0116101da575b816101a560a093836117eb565b810103126101d6576003826101bc61017d94612167565b506101ce608060208301519201612167565b509250610163565b5f80fd5b3d9150610198565b513d5f823e3d90fd5b606490602084519162461bcd60e51b8352820152601060248201526f105b1c9958591e481c995cdbdb1d995960821b6044820152fd5b815162461bcd60e51b8152602081850152600b60248201526a26b0b935b2ba1037b832b760a91b6044820152606490fd5b50346101d657602091826003193601126101d65780355f52808352815f2090808201549261028260ff85166119eb565b600b830194855460ff81161561046b5760081c60ff16610438576102a96005850154612616565b6001600160401b03969196809716916102c56006880154612616565b9490928984169581610430575b50156103ef575060081c60ff16926fffffffffffffffff0000000000000000919084156103e85783945b156103e1575b6001600160401b0360c01b9060c01b16941b1617906001600160401b0360801b9060801b16171780600784015560c01c9260028301549061ffff821685028181169081036103ce5761271082910416809503908082116103ce579060ff92916008860191166001600160401b031982541617905560101c169060028210156103bb575061039d57600901555b805461ff001916610100179055005b600a906103ac6103b69361277f565b918291015561217e565b61038e565b602190634e487b7160e01b5f525260245ffd5b601184634e487b7160e01b5f525260245ffd5b5082610302565b80946102fc565b868160649288519262461bcd60e51b845283015260248201527f446563727970742070656e64696e67202d2074727920616761696e20736f6f6e6044820152fd5b90505f6102d2565b905162461bcd60e51b815291820152600f60248201526e105b1c9958591e481cd95d1d1b1959608a1b6044820152606490fd5b50905162461bcd60e51b815291820152601960248201527f43616c6c207265717565737444656372797074206669727374000000000000006044820152606490fd5b50346101d65760203660031901126101d6576020906001600160a01b036104d2611941565b165f5260078252805f20549051908152f35b50346101d6576104f3366118d1565b9160025f54146105115761050b838360025f55611fae565b60015f55005b51633ee5aeb560e01b81528390fd5b50346101d65761052f366118d1565b929091825f5260209180835260ff600b835f20015460081c161561065957835f526005835261056085835f206118e7565b5080546001600160a01b0316330361062857600581019160ff835461058782821615611a29565b60081c166105f157509060027fd291b9536dd7e64691d3d23bc78741ea00823fd29be82c576bf34992a6b87bf6949392015480156105de575b6105c9906125bb565b50805460ff19166001179055519384523393a3005b506105c96105ea61270e565b90506105c0565b835162461bcd60e51b8152908101859052601160248201527020b63932b0b23c903bb4ba34323930bbb760791b6044820152606490fd5b5082606492519162461bcd60e51b8352820152600c60248201526b139bdd081e5bdd5c8818995d60a21b6044820152fd5b82606492519162461bcd60e51b8352820152601260248201527113585c9ad95d081b9bdd081cd95d1d1b195960721b6044820152fd5b50346101d65760203660031901126101d65781355f5281602052805f20815191825f83546106bc81611957565b808452906001908181169081156108595750600114610818575b5050036106e390846117eb565b60018201549160028101548060101c60ff16926003830154908784015460058501549160068601546007870154936001600160401b03938460088a0154169660098a015498600a8b01549a600b01549b86519e8f9061026080835282016107499161198f565b9e60208201528761ffff84169101526002811015610804578e9f508e60ff899895819f9e9d9c9b9a98958b989561010095606086015260018060a01b039060181c16608085015260a0840152818116151560c084015260081c16151560e082015201526101208d01528282166101408d01521c166101608a01528160801c1661018089015260c01c6101a08801526101c08701526101e0860152610200850152818116151561022085015260081c1615156102408301520390f35b5060218f634e487b7160e01b5f525260245ffd5b5f8681526020812092949350915b84831061083e57505081602092935001015f806106d6565b81935090816020925483858b01015201910190918692610826565b9150506020925060ff191682840152151560051b8201015f806106d6565b5060031960a0368201126101d65782359160246001600160401b0381358181116101d6576108a89036908801611835565b506044358181116101d6576108c09036908801611835565b90606435906084358181116101d6576108dc9036908a01611835565b92875f52602096898852865f20916001830154421015610d375760ff888201511680610d1c57506109419061090f612488565b50805190606060ff8c83015116910151908a519261092c84611773565b83528b8301525f8a83015260608201526124ac565b9461094b8661217e565b60ff600284015460101c166002811015610d0a578b88928b92155f14610bab57505050505082341480610ba2575b15610b7657875f5260068752855f20610993848254611f8d565b9055610a156109a18461277f565b915b6109ac8361217e565b6109b6338461225e565b6109c0338761225e565b610a0f6109d56109ce61269c565b85896123be565b610a0760066109ec876109e661269c565b8c6123be565b946109fc600582019485546122af565b8455019384546122af565b83555461217e565b5461217e565b875f5260058752855f209286519260e084019084821090821117610b6457875233835287830194828652878401908152606084019182526080840192835260a08401955f875260c08501955f875280549068010000000000000000821015610b525790610a87916001820181556118e7565b959095610b41575185546001600160a01b039091166001600160a01b03199091161785555160018501555160028401555160038301555188820155915160059283018054925161ff0090151560081b1691151560ff1661ffff19909316929092171790555f858152908452829020545f19810195908611610b30575050907f87b9df6fa7123c2e6044c3a3a37b4b0662c188d7a58ef86ee55067c46e4613ad91519384523393a3005b601190634e487b7160e01b5f52525ffd5b885f8e634e487b7160e01b8252525ffd5b8960418f634e487b7160e01b5f52525ffd5b8660418c634e487b7160e01b5f52525ffd5b855162461bcd60e51b8152808a0188905260078187015266084c2c8408aa8960cb1b6044820152606490fd5b50821515610979565b90610c57610bbe600593979596976121e8565b96610bc88861217e565b335f52600785528c610c48815f20548a8115610cfa575b8b15610cec575b835191610bf2836117b5565b6002835284368b850137610c05836127ac565b52610c0f826127b9565b526007835193610c1e856117d0565b5f8552519a8b988998631888debd60e01b8a52890152870152608060448701526084860190612531565b91848303016064850152612531565b03815f73ea30c4b8b44078bbf8a6ef5b9f1ec1626c7848d95af1918215610ce2575f92610cb1575b50610c98610a1592335f5260078b52808a5f205561217e565b335f5260078952610cac33895f205461225e565b6109a3565b91508882813d8311610cdb575b610cc881836117eb565b810103126101d657905190610c98610c7f565b503d610cbe565b88513d5f823e3d90fd5b50610cf561269c565b610be6565b9050610d0461269c565b90610bdf565b8760218d634e487b7160e01b5f52525ffd5b8b5f896044938c51936367cf307160e01b8552840152820152fd5b875162461bcd60e51b8152808c018a9052600d818901526c13585c9ad95d0818db1bdcd959609a1b6044820152606490fd5b50346101d65760203660031901126101d657602091355f5260068252805f20549051908152f35b50346101d6575f3660031901126101d65760025490516001600160a01b039091168152602090f35b5090346101d65760803660031901126101d657610dd3611941565b506001600160a01b0391602435838116908181036101d657604435946064356001600160401b0381116101d657610e0d9036908701611914565b5050600254163303610f6d57610e6090610e268661217e565b825f52610e50610e3f60209760078952865f20546122af565b845f526007885280865f205561217e565b825f5260078652835f205461225e565b7f89fe51aae7476b85e93c8eb517e32e75b50ee3b1bc665dae26b0475e007060bc8483515f8152a28051610e93816117d0565b5f8152815192610ea284611773565b60038452606036868601376001610eb8856127ac565b525f610ec3856127b9565b52835160021015610f5a579084915f6060860152610ef284519586938493631888debd60e01b85528401612597565b03815f73ea30c4b8b44078bbf8a6ef5b9f1ec1626c7848d95af1918215610f50575f92610f21575b5051908152f35b9091508281813d8311610f49575b610f3981836117eb565b810103126101d65751905f610f1a565b503d610f2f565b50513d5f823e3d90fd5b603290634e487b7160e01b5f525260245ffd5b825162461bcd60e51b8152602081860152601260248201527113db9b1e48105554d1081858d8d95c1d195960721b6044820152606490fd5b50346101d6575f3660031901126101d65760015490516001600160a01b039091168152602090f35b50346101d65760c03660031901126101d6576001600160401b039082358281116101d657610ffe9036908501611914565b906024359360443561ffff81168091036101d65760643560028110156101d6576001600160a01b0396608435919088831683036101d6576110456001998a541633146119b3565b428111156112f8576103e884116112c657600354985f19808b146112b357818b016003558a5f5260209b808d528a5f20978a116112a057509188979593918795938d6110928e9a54611957565b601f811161123d575b505f90601f8c116001146111915750907f6bfe994aa671108bc4fcb31c2a97ab16ddb967720121010032b2e834bf5eacf6999a611157989796959493925f91611186575b508c831b918d60031b1c19161786555b85015560028401805460109290921b62ff0000166001600160b81b03199092169093171760189190911b6301000000600160b81b031617905560a4356003820155610a0f61113b61269c565b60058301908155600661114c61269c565b93019283555461217e565b838551918883528189840152868301375f8185018601523393601f01601f19168101819003850190a351908152f35b90508901355f6110df565b91909a601f198116895f52835f20935f905b82821061120b57505091817f6bfe994aa671108bc4fcb31c2a97ab16ddb967720121010032b2e834bf5eacf69c9d926111579b9a999897969594106111f2575b841b84018955506110ef915050565b60f89060031b161c19908a01351690555f80808d6111e3565b92509496989a9c9597999b509192818781928f89013581550196019401918f9b99979593928e929d9b9997959d6111a3565b919395979950919395979950885f52815f2090601f8c0160051c8201928c10611296575b918d9997959391601f8d9c9a9896940160051c01905b818110611286578f915061109b565b5f81558c9b508e9a508301611277565b9091508190611261565b604190634e487b7160e01b5f525260245ffd5b60118c634e487b7160e01b5f525260245ffd5b875162461bcd60e51b81526020818c0152600c60248201526b08ccaca40e8dede40d0d2ced60a31b6044820152606490fd5b875162461bcd60e51b81526020818c01526012602482015271496e76616c696420636c6f73652074696d6560701b6044820152606490fd5b5090346101d65760203660031901126101d6576001546001600160a01b039061135c90821633146119b3565b81355f52816020526009835f20019081549182156113cb575f8093819382809455600154165af161138b611f5e565b501561139357005b6020606492519162461bcd60e51b83528201526013602482015272119959481d1c985b9cd9995c8819985a5b1959606a1b6044820152fd5b845162461bcd60e51b815260208186015260066024820152654e6f2066656560d01b6044820152606490fd5b50346101d65760203660031901126101d657602091355f5260058252805f20549051908152f35b5090346101d65761142e366118d1565b905f526005602052825f209283548210156101d65761145160ff9260e0956118e7565b5060018060a01b03815416936001820154926002830154906005600385015493850154940154948151978852602088015286015260608501526080840152818116151560a084015260081c16151560c0820152f35b346101d6576114bd6114b7366118d1565b90611b7b565b005b50346101d65760203660031901126101d65760ff6114eb9183355f52836020525f2092830154166119eb565b6006600b82019161150060ff84541615611a29565b60058101548015611549575b611515906125bb565b5001548015611536575b611528906125bb565b50805460ff19166001179055005b5061152861154261269c565b905061151f565b5061151561155561269c565b905061150c565b5090346101d657602091826003193601126101d65781356001600160401b0381116101d657836115986115935f9336908701611835565b6121e8565b936115a28561217e565b6002546064906001600160a01b03906115bd9082168861225e565b60025416918551948593849263ca49d7cd60e01b845233908401523060248401528860448401525af180156116865790849161165d575b505061163f61162e7f89fe51aae7476b85e93c8eb517e32e75b50ee3b1bc665dae26b0475e007060bc93335f5260078652835f20546122af565b335f526007855280835f205561217e565b335f526007835261165333825f205461225e565b51915f83523392a2005b813d831161167f575b61167081836117eb565b810103126101d657825f6115f4565b503d611666565b82513d5f823e3d90fd5b50346101d6575f3660031901126101d6576020906003549051908152f35b5090346101d657602091826003193601126101d6578261173d9260018060a01b036116de816001541633146119b3565b81355f52818352600a845f2001916117028354936116fa61269c565b80915561217e565b5f826002541692600154169186519788958694859363fe3f670d60e01b8552840160209093929193604081019460018060a01b031681520152565b03925af19081156101e2575061174f57005b813d831161176c575b61176281836117eb565b810103126101d657005b503d611758565b608081019081106001600160401b0382111761178e57604052565b634e487b7160e01b5f52604160045260245ffd5b6001600160401b03811161178e57604052565b606081019081106001600160401b0382111761178e57604052565b602081019081106001600160401b0382111761178e57604052565b90601f801991011681019081106001600160401b0382111761178e57604052565b359060ff821682036101d657565b6001600160401b03811161178e57601f01601f191660200190565b91906080838203126101d6576040519261184e84611773565b838135815260209161186183820161180c565b838301526118716040820161180c565b60408301526060810135906001600160401b0382116101d6570183601f820112156101d6578035926118a28461181a565b946118b060405196876117eb565b8486528185840101116101d65783606094825f940183880137850101520152565b60409060031901126101d6576004359060243590565b8054821015611900575f52600660205f20910201905f90565b634e487b7160e01b5f52603260045260245ffd5b9181601f840112156101d6578235916001600160401b0383116101d657602083818601950101116101d657565b600435906001600160a01b03821682036101d657565b90600182811c92168015611985575b602083101461197157565b634e487b7160e01b5f52602260045260245ffd5b91607f1691611966565b805180835260209291819084018484015e5f828201840152601f01601f1916010190565b156119ba57565b60405162461bcd60e51b81526020600482015260096024820152682737ba1037bbb732b960b91b6044820152606490fd5b156119f257565b60405162461bcd60e51b815260206004820152600f60248201526e13dd5d18dbdb59481b9bdd081cd95d608a1b6044820152606490fd5b15611a3057565b60405162461bcd60e51b8152602060048201526011602482015270105b1c9958591e481c995c5d595cdd1959607a1b6044820152606490fd5b15611a7057565b60405162461bcd60e51b815260206004820152600a602482015269109859081b585c9ad95d60b21b6044820152606490fd5b15611aa957565b60405162461bcd60e51b81526020600482015260076024820152661098590818995d60ca1b6044820152606490fd5b15611adf57565b60405162461bcd60e51b815260206004820152601c60248201527f43616c6c207265717565737442657444656372797074206669727374000000006044820152606490fd5b15611b2b57565b60405162461bcd60e51b815260206004820152602260248201527f4f7574636f6d65206e6f74207265616479202d2074727920616761696e20736f60448201526137b760f11b6064820152608490fd5b90815f526004602092818452604091825f209360029260ff8487015460101c1684811015611f4b57906001611bc993921480611f3a575b611bbb90611a69565b5f5260058752845f206118e7565b5080546001600160a01b0391908216331480611f28575b611be990611aa2565b611c15600582016101008154611c0160ff8216611ad8565b611c0d88860154612616565b949094611b24565b61ff0019161790558684015460081c60ff16151590151503611f1f5782018054956001600160401b0390611c4e8260088301541661277f565b8815611f0f575b8015611f01575b875198611c688a6117b5565b878a5288368c8c0137611c7a8a6127ac565b52611c84896127b9565b52865191611c91836117d0565b5f835287519081611cdb611cc8631888debd60e01b9c8d845260058b850152600f6024850152608060448501526084840190612531565b6003199687848303016064850152612531565b03928b8373ea30c4b8b44078bbf8a6ef5b9f1ec1626c7848d995815f885af1928315611ef757908c95949392915f93611ec3575b50906007611d2b92611d208561217e565b015460801c1661277f565b8115611eb3575b8015611ea5575b895191611d45836117b5565b8983528a3687850137611d57836127ac565b52611d61826127b9565b52885199611d6e8b6117d0565b5f8b5289519a8b948593849384528a84016005905260248401600d9052604484016080905260848401611da091612531565b90838203016064840152611db391612531565b03915a905f91f1958615611e9b579087949392915f97611e68575b5086611de691611de0611e309961217e565b546122af565b92611df08461217e565b611dfd828254168561225e565b54855163fe3f670d60e01b815233938101938452602084019490945292958693919091169183915f918391604090910190565b03925af19081156101e25750611e44575050565b813d8311611e61575b611e5781836117eb565b810103126101d657565b503d611e4d565b96509386813d8111611e94575b611e7f81836117eb565b810103126101d6579451948693611de6611dce565b503d611e75565b85513d5f823e3d90fd5b50611eae61269c565b611d39565b9050611ebd61269c565b90611d32565b868193979294503d8311611ef0575b611edc81836117eb565b810103126101d657518b9490916007611d0f565b503d611ed2565b8a513d5f823e3d90fd5b50611f0a61269c565b611c5c565b9750611f1961269c565b97611c55565b50505050505050565b50600581015460081c60ff1615611be0565b50600b87015460081c60ff16611bb2565b602184634e487b7160e01b5f525260245ffd5b3d15611f88573d90611f6f8261181a565b91611f7d60405193846117eb565b82523d5f602084013e565b606090565b91908201809211611f9a57565b634e487b7160e01b5f52601160045260245ffd5b805f526004918260205260405f209060ff600283015460101c1660028110156121545790611ff7911580612143575b611fe690611a69565b835f52600560205260405f206118e7565b5080546001600160a01b0316331480612131575b61201490611aa2565b61203960058201610100815461202c60ff8216611ad8565b611c0d6002860154612616565b61ff0019161790558285015460081c60ff1615159015150361212b5760030154906001600160401b038060088301541691828402928484041484151715612118576007015460801c16908115612105579061209692910490611f8d565b905f52600660205260405f208054908282039182116103ce575f80938193829355335af16120c2611f5e565b50156120cb5750565b60649060206040519162461bcd60e51b83528201526013602482015272115512081d1c985b9cd9995c8819985a5b1959606a1b6044820152fd5b601285634e487b7160e01b5f525260245ffd5b601186634e487b7160e01b5f525260245ffd5b50505050565b50600581015460081c60ff161561200b565b50600b83015460081c60ff16611fdd565b602185634e487b7160e01b5f525260245ffd5b519069ffffffffffffffffffff821682036101d657565b73ea30c4b8b44078bbf8a6ef5b9f1ec1626c7848d9803b156101d657604051631974142760e21b815260048101929092523060248301525f908290818381604481015b03925af180156121dd576121d25750565b6121db906117a2565b565b6040513d5f823e3d90fd5b60ff6040820151166005810361223f575061223c90612205612488565b50805190606060ff602083015116910151906040519261222484611773565b835260208301526005604083015260608201526124ac565b90565b604490604051906367cf307160e01b8252600482015260056024820152fd5b73ea30c4b8b44078bbf8a6ef5b9f1ec1626c7848d991823b156101d657604051631974142760e21b815260048101929092526001600160a01b03166024820152905f908290818381604481016121c1565b9081156123ae575b80156123a0575b604051916122cb836117b5565b6002835260403660208501376122e0836127ac565b526122ea826127b9565b526020612334604051926122fd846117d0565b5f84526123466040519485938493631888debd60e01b85526005600486015260086024860152608060448601526084850190612531565b83810360031901606485015290612531565b03815f73ea30c4b8b44078bbf8a6ef5b9f1ec1626c7848d95af19081156121dd575f91612371575090565b90506020813d602011612398575b8161238c602093836117eb565b810103126101d6575190565b3d915061237f565b506123a961269c565b6122be565b90506123b861269c565b906122b7565b91908215612478575b801561246a575b811561245a575b604051926123e284611773565b6003845260603660208601376123f7846127ac565b52612401836127b9565b52815160021015611900576060820152602061233460405192612423846117d0565b5f84526123466040519485938493631888debd60e01b85526005600486015260046024860152608060448601526084850190612531565b905061246461269c565b906123d5565b5061247361269c565b6123ce565b915061248261270e565b916123c7565b6040519061249582611773565b606080835f81525f60208201525f60408201520152565b602060606125009260405193849283926313fce3b160e11b8452604060048501528051604485015260ff8682015116606485015260ff60408201511660848501520151608060a484015260c483019061198f565b33602483015203815f73ea30c4b8b44078bbf8a6ef5b9f1ec1626c7848d95af19081156121dd575f91612371575090565b9081518082526020808093019301915f5b828110612550575050505090565b835185529381019392810192600101612542565b909161258961223c9360058452601a6020850152608060408501526080840190612531565b916060818403910152612531565b909161258961223c935f8452601a6020850152608060408501526080840190612531565b73ea30c4b8b44078bbf8a6ef5b9f1ec1626c7848d9803b156101d657604051630828982760e01b815260048101839052336024820152905f908290604490829084905af180156121dd5761260d575090565b61223c906117a2565b90604080519263458693c960e01b84526004840152808360248173ea30c4b8b44078bbf8a6ef5b9f1ec1626c7848d95afa928315610f50575f915f9461265d575b50509190565b8194508092503d8311612695575b61267581836117eb565b810103126101d657602082519201519182151583036101d6575f80612657565b503d61266b565b6040516126a8816117d0565b5f8152604051906126b882611773565b6003825260603660208401375f6126ce836127ac565b5260056126da836127b9565b52815160021015611900575f6060830152604051631888debd60e01b81529160209183918291612346919060048401612564565b60405161271a816117d0565b5f81526040519061272a82611773565b6003825260603660208401375f612740836127ac565b525f61274b836127b9565b52815160021015611900575f6060830152604051631888debd60e01b81529160209183918291612346919060048401612597565b60405161278b816117d0565b5f81526040519161279b83611773565b6003835260603660208501376126ce835b8051156119005760200190565b805160011015611900576040019056fea26469706673582212209d5c92e67248b01ed71f75b944ea714f869f5fe6e1bc1ed211f8bd8c6c68952264736f6c63430008190033",
  "devdoc": {
    "errors": {
      "ReentrancyGuardReentrantCall()": [
        {
          "details": "Unauthorized reentrant call."
        }
      ]
    },
    "kind": "dev",
    "methods": {
      "depositFUSD((uint256,uint8,uint8,bytes))": {
        "details": "Converts InEuint64  euint64 first, then calls confidentialTransferFrom(euint64 overload)      This avoids InvalidSigner since the euint64 overload only checks operator permission"
      }
    },
    "version": 1
  },
  "userdoc": {
    "kind": "user",
    "methods": {
      "depositFUSD((uint256,uint8,uint8,bytes))": {
        "notice": "Deposit FUSD  user must first call setOperator on AUSD for this contract"
      },
      "onConfidentialTransferReceived(address,address,uint256,bytes)": {
        "notice": "FHERC20 callback  called by AUSD when user does confidentialTransferAndCall"
      },
      "requestBetDecrypt(uint256,uint256)": {
        "notice": "Step 1: Request decryption of your bet outcome (call before withdraw)"
      },
      "requestDecrypt(uint256)": {
        "notice": "Request decryption of pool totals - must be called before settleMarket"
      },
      "withdrawETH(uint256,uint256)": {
        "notice": "Step 2: Claim ETH winnings (call after decryption completes)"
      },
      "withdrawFUSD(uint256,uint256)": {
        "notice": "Step 2: Claim FUSD winnings (call after decryption completes)"
      }
    },
    "version": 1
  },
  "storageLayout": {
    "storage": [
      {
        "astId": 17520,
        "contract": "contracts/FHEPredictionMarket.sol:FHEPredictionMarket",
        "label": "_status",
        "offset": 0,
        "slot": "0",
        "type": "t_uint256"
      },
      {
        "astId": 22352,
        "contract": "contracts/FHEPredictionMarket.sol:FHEPredictionMarket",
        "label": "owner",
        "offset": 0,
        "slot": "1",
        "type": "t_address"
      },
      {
        "astId": 22355,
        "contract": "contracts/FHEPredictionMarket.sol:FHEPredictionMarket",
        "label": "fusd",
        "offset": 0,
        "slot": "2",
        "type": "t_contract(IShieldedStablecoin)22328"
      },
      {
        "astId": 22487,
        "contract": "contracts/FHEPredictionMarket.sol:FHEPredictionMarket",
        "label": "marketCounter",
        "offset": 0,
        "slot": "3",
        "type": "t_uint256"
      },
      {
        "astId": 22492,
        "contract": "contracts/FHEPredictionMarket.sol:FHEPredictionMarket",
        "label": "markets",
        "offset": 0,
        "slot": "4",
        "type": "t_mapping(t_uint256,t_struct(Market)22431_storage)"
      },
      {
        "astId": 22498,
        "contract": "contracts/FHEPredictionMarket.sol:FHEPredictionMarket",
        "label": "bets",
        "offset": 0,
        "slot": "5",
        "type": "t_mapping(t_uint256,t_array(t_struct(Bet)22449_storage)dyn_storage)"
      },
      {
        "astId": 22502,
        "contract": "contracts/FHEPredictionMarket.sol:FHEPredictionMarket",
        "label": "ethMarketEscrow",
        "offset": 0,
        "slot": "6",
        "type": "t_mapping(t_uint256,t_uint256)"
      },
      {
        "astId": 22507,
        "contract": "contracts/FHEPredictionMarket.sol:FHEPredictionMarket",
        "label": "userFusdBalance",
        "offset": 0,
        "slot": "7",
        "type": "t_mapping(t_address,t_userDefinedValueType(euint64)72)"
      }
    ],
    "types": {
      "t_address": {
        "encoding": "inplace",
        "label": "address",
        "numberOfBytes": "20"
      },
      "t_array(t_struct(Bet)22449_storage)dyn_storage": {
        "base": "t_struct(Bet)22449_storage",
        "encoding": "dynamic_array",
        "label": "struct FHEPredictionMarket.Bet[]",
        "numberOfBytes": "32"
      },
      "t_bool": {
        "encoding": "inplace",
        "label": "bool",
        "numberOfBytes": "1"
      },
      "t_contract(AggregatorV3Interface)45": {
        "encoding": "inplace",
        "label": "contract AggregatorV3Interface",
        "numberOfBytes": "20"
      },
      "t_contract(IShieldedStablecoin)22328": {
        "encoding": "inplace",
        "label": "contract IShieldedStablecoin",
        "numberOfBytes": "20"
      },
      "t_enum(Currency)22387": {
        "encoding": "inplace",
        "label": "enum FHEPredictionMarket.Currency",
        "numberOfBytes": "1"
      },
      "t_int256": {
        "encoding": "inplace",
        "label": "int256",
        "numberOfBytes": "32"
      },
      "t_mapping(t_address,t_userDefinedValueType(euint64)72)": {
        "encoding": "mapping",
        "key": "t_address",
        "label": "mapping(address => euint64)",
        "numberOfBytes": "32",
        "value": "t_userDefinedValueType(euint64)72"
      },
      "t_mapping(t_uint256,t_array(t_struct(Bet)22449_storage)dyn_storage)": {
        "encoding": "mapping",
        "key": "t_uint256",
        "label": "mapping(uint256 => struct FHEPredictionMarket.Bet[])",
        "numberOfBytes": "32",
        "value": "t_array(t_struct(Bet)22449_storage)dyn_storage"
      },
      "t_mapping(t_uint256,t_struct(Market)22431_storage)": {
        "encoding": "mapping",
        "key": "t_uint256",
        "label": "mapping(uint256 => struct FHEPredictionMarket.Market)",
        "numberOfBytes": "32",
        "value": "t_struct(Market)22431_storage"
      },
      "t_mapping(t_uint256,t_uint256)": {
        "encoding": "mapping",
        "key": "t_uint256",
        "label": "mapping(uint256 => uint256)",
        "numberOfBytes": "32",
        "value": "t_uint256"
      },
      "t_string_storage": {
        "encoding": "bytes",
        "label": "string",
        "numberOfBytes": "32"
      },
      "t_struct(Bet)22449_storage": {
        "encoding": "inplace",
        "label": "struct FHEPredictionMarket.Bet",
        "members": [
          {
            "astId": 22433,
            "contract": "contracts/FHEPredictionMarket.sol:FHEPredictionMarket",
            "label": "bettor",
            "offset": 0,
            "slot": "0",
            "type": "t_address"
          },
          {
            "astId": 22436,
            "contract": "contracts/FHEPredictionMarket.sol:FHEPredictionMarket",
            "label": "encryptedStake",
            "offset": 0,
            "slot": "1",
            "type": "t_userDefinedValueType(euint64)72"
          },
          {
            "astId": 22439,
            "contract": "contracts/FHEPredictionMarket.sol:FHEPredictionMarket",
            "label": "encryptedOutcome",
            "offset": 0,
            "slot": "2",
            "type": "t_userDefinedValueType(ebool)64"
          },
          {
            "astId": 22441,
            "contract": "contracts/FHEPredictionMarket.sol:FHEPredictionMarket",
            "label": "ethEscrow",
            "offset": 0,
            "slot": "3",
            "type": "t_uint256"
          },
          {
            "astId": 22444,
            "contract": "contracts/FHEPredictionMarket.sol:FHEPredictionMarket",
            "label": "fusdEscrow",
            "offset": 0,
            "slot": "4",
            "type": "t_userDefinedValueType(euint64)72"
          },
          {
            "astId": 22446,
            "contract": "contracts/FHEPredictionMarket.sol:FHEPredictionMarket",
            "label": "decryptRequested",
            "offset": 0,
            "slot": "5",
            "type": "t_bool"
          },
          {
            "astId": 22448,
            "contract": "contracts/FHEPredictionMarket.sol:FHEPredictionMarket",
            "label": "withdrawn",
            "offset": 1,
            "slot": "5",
            "type": "t_bool"
          }
        ],
        "numberOfBytes": "192"
      },
      "t_struct(Market)22431_storage": {
        "encoding": "inplace",
        "label": "struct FHEPredictionMarket.Market",
        "members": [
          {
            "astId": 22389,
            "contract": "contracts/FHEPredictionMarket.sol:FHEPredictionMarket",
            "label": "question",
            "offset": 0,
            "slot": "0",
            "type": "t_string_storage"
          },
          {
            "astId": 22391,
            "contract": "contracts/FHEPredictionMarket.sol:FHEPredictionMarket",
            "label": "closeTime",
            "offset": 0,
            "slot": "1",
            "type": "t_uint256"
          },
          {
            "astId": 22393,
            "contract": "contracts/FHEPredictionMarket.sol:FHEPredictionMarket",
            "label": "feeBps",
            "offset": 0,
            "slot": "2",
            "type": "t_uint16"
          },
          {
            "astId": 22396,
            "contract": "contracts/FHEPredictionMarket.sol:FHEPredictionMarket",
            "label": "currency",
            "offset": 2,
            "slot": "2",
            "type": "t_enum(Currency)22387"
          },
          {
            "astId": 22399,
            "contract": "contracts/FHEPredictionMarket.sol:FHEPredictionMarket",
            "label": "priceFeed",
            "offset": 3,
            "slot": "2",
            "type": "t_contract(AggregatorV3Interface)45"
          },
          {
            "astId": 22401,
            "contract": "contracts/FHEPredictionMarket.sol:FHEPredictionMarket",
            "label": "priceThreshold",
            "offset": 0,
            "slot": "3",
            "type": "t_int256"
          },
          {
            "astId": 22403,
            "contract": "contracts/FHEPredictionMarket.sol:FHEPredictionMarket",
            "label": "outcomeReported",
            "offset": 0,
            "slot": "4",
            "type": "t_bool"
          },
          {
            "astId": 22405,
            "contract": "contracts/FHEPredictionMarket.sol:FHEPredictionMarket",
            "label": "winningOutcome",
            "offset": 1,
            "slot": "4",
            "type": "t_bool"
          },
          {
            "astId": 22408,
            "contract": "contracts/FHEPredictionMarket.sol:FHEPredictionMarket",
            "label": "totalYes",
            "offset": 0,
            "slot": "5",
            "type": "t_userDefinedValueType(euint64)72"
          },
          {
            "astId": 22411,
            "contract": "contracts/FHEPredictionMarket.sol:FHEPredictionMarket",
            "label": "totalNo",
            "offset": 0,
            "slot": "6",
            "type": "t_userDefinedValueType(euint64)72"
          },
          {
            "astId": 22413,
            "contract": "contracts/FHEPredictionMarket.sol:FHEPredictionMarket",
            "label": "decryptedYes",
            "offset": 0,
            "slot": "7",
            "type": "t_uint64"
          },
          {
            "astId": 22415,
            "contract": "contracts/FHEPredictionMarket.sol:FHEPredictionMarket",
            "label": "decryptedNo",
            "offset": 8,
            "slot": "7",
            "type": "t_uint64"
          },
          {
            "astId": 22417,
            "contract": "contracts/FHEPredictionMarket.sol:FHEPredictionMarket",
            "label": "winningPool",
            "offset": 16,
            "slot": "7",
            "type": "t_uint64"
          },
          {
            "astId": 22419,
            "contract": "contracts/FHEPredictionMarket.sol:FHEPredictionMarket",
            "label": "losingPool",
            "offset": 24,
            "slot": "7",
            "type": "t_uint64"
          },
          {
            "astId": 22421,
            "contract": "contracts/FHEPredictionMarket.sol:FHEPredictionMarket",
            "label": "distributablePool",
            "offset": 0,
            "slot": "8",
            "type": "t_uint64"
          },
          {
            "astId": 22423,
            "contract": "contracts/FHEPredictionMarket.sol:FHEPredictionMarket",
            "label": "ethProtocolFee",
            "offset": 0,
            "slot": "9",
            "type": "t_uint256"
          },
          {
            "astId": 22426,
            "contract": "contracts/FHEPredictionMarket.sol:FHEPredictionMarket",
            "label": "fusdProtocolFee",
            "offset": 0,
            "slot": "10",
            "type": "t_userDefinedValueType(euint64)72"
          },
          {
            "astId": 22428,
            "contract": "contracts/FHEPredictionMarket.sol:FHEPredictionMarket",
            "label": "decryptRequested",
            "offset": 0,
            "slot": "11",
            "type": "t_bool"
          },
          {
            "astId": 22430,
            "contract": "contracts/FHEPredictionMarket.sol:FHEPredictionMarket",
            "label": "settled",
            "offset": 1,
            "slot": "11",
            "type": "t_bool"
          }
        ],
        "numberOfBytes": "384"
      },
      "t_uint16": {
        "encoding": "inplace",
        "label": "uint16",
        "numberOfBytes": "2"
      },
      "t_uint256": {
        "encoding": "inplace",
        "label": "uint256",
        "numberOfBytes": "32"
      },
      "t_uint64": {
        "encoding": "inplace",
        "label": "uint64",
        "numberOfBytes": "8"
      },
      "t_userDefinedValueType(ebool)64": {
        "encoding": "inplace",
        "label": "ebool",
        "numberOfBytes": "32"
      },
      "t_userDefinedValueType(euint64)72": {
        "encoding": "inplace",
        "label": "euint64",
        "numberOfBytes": "32"
      }
    }
  }
}